:100000000C945D000C9485000C9485000C94850084
:100010000C9485000C9485000C9485000C9485004C
:100020000C9485000C9485000C9485000C9485003C
:100030000C9485000C9485000C9485000C9485002C
:100040000C9482020C9485000C94F2020C94CC0265
:100050000C9485000C9485000C9485000C9485000C
:100060000C9485000C94850000000008000201003B
:100070000003040700000000000000000000000072
:10008000250028002B0000000000240027002A0083
:10009000040404040404040402020202020203032E
:1000A0000303030301020408102040800102040836
:1000B0001020010204081020E30311241FBECFEF1B
:1000C000D8E0DEBFCDBF11E0A0E0B1E0EAE3F8E0A8
:1000D00002C005900D92A231B107D9F721E0A2E14B
:1000E000B1E001C01D92AA3BB207E1F710E0CDE5F7
:1000F000D0E004C02197FE010E941004CC35D10746
:10010000C9F70E9424030C941B040C940000EDE139
:10011000F1E0A089B18982E08C93A485B5851C9219
:10012000A685B7858FEC8C93108EA489B58986E05F
:100130008C93A289B3898C9180618C93A289B389B5
:100140008C9188608C93A289B3898C9180688C9300
:100150000288F389E02D80818F7D8083089590E06F
:10016000FC01EC55FF4F2491FC01E057FF4F8491B7
:10017000882399F090E0880F991FFC01EA57FF4F00
:10018000A591B491FC01E458FF4F859194918FB7EC
:10019000F894EC91E22BEC938FBF089590E0FC0172
:1001A000E859FF4F2491FC01EC55FF4F3491FC01BD
:1001B000E057FF4FE491EE23B1F1222339F12330D0
:1001C00091F038F42130A9F0223001F584B58F7D0B
:1001D00012C0273091F02830A1F02430B9F480917A
:1001E00080008F7D03C0809180008F778093800096
:1001F0000DC084B58F7784BD09C08091B0008F7722
:1002000003C08091B0008F7D8093B000F0E0EE0FCE
:10021000FF1FE458FF4FA591B4918FB7F894EC916C
:10022000E32BEC938FBF08953FB7F89480911901A9
:1002300090911A01A0911B01B0911C0126B5A89BB9
:1002400005C02F3F19F00196A11DB11D3FBFBA2F68
:10025000A92F982F8827820F911DA11DB11DBC01C8
:10026000CD0142E0660F771F881F991F4A95D1F78D
:1002700008958F929F92AF92BF92CF92DF92EF92AA
:10028000FF920E9414014B015C0184E6C82ED12C20
:10029000E12CF12C0E941401DC01CB018819990991
:1002A000AA09BB09883E9340A105B10598F321E056
:1002B000C21AD108E108F10888EE880E83E0981E82
:1002C000A11CB11CC114D104E104F10419F7FF9081
:1002D000EF90DF90CF90BF90AF909F908F90089558
:1002E000CF92DF92EF92FF920F931F93CF93DF9302
:1002F0006C017A018B01C0E0D0E0CE15DF0581F002
:10030000D8016D918D01D601ED91FC910190F081A4
:10031000E02DC6010995892B11F02196EECF7E01C3
:10032000C701DF91CF911F910F91FF90EF90DF9068
:10033000CF900895089580E090E00895FC01538DDA
:10034000448D252F30E0842F90E0821B930B5417AF
:1003500010F0CF96089501970895FC01918D828D3C
:10036000981761F0828DDF01A80FB11D5D968C9109
:10037000928D9F5F9F73928F90E008958FEF9FEF14
:100380000895FC01918D828D981731F0828DE80FD0
:10039000F11D858D90E008958FEF9FEF0895FC018A
:1003A000918D228D892F90E0805C9F4F821B910957
:1003B0008F73992708958DE191E00E94CF0121E08C
:1003C000892B09F420E0822F0895FC01848DDF0140
:1003D000A80FB11DA35ABF4F2C91848D90E00196B8
:1003E0008F739927848FA689B7892C93A089B189A7
:1003F0008C91837080648C93938D848D981306C048
:100400000288F389E02D80818F7D80830895EF92AB
:10041000FF920F931F93CF93DF93EC0181E0888FBE
:100420009B8D8C8D981305C0E889F989808185FDA5
:1004300026C0F62E0B8D10E00F5F1F4F0F73112794
:10044000E02E8C8DE8120CC00FB607FCFACFE889BD
:10045000F989808185FFF5CFCE010E94E501F1CFBA
:100460008B8DFE01E80FF11DE35AFF4FF0829FB71D
:10047000F8940B8FEA89FB89808180620AC09FB75C
:10048000F894EE89FF896083E889F9898081837017
:10049000806480839FBF81E090E0DF91CF911F91C6
:1004A0000F91FF90EF900895CF93DF93EC01888D2B
:1004B0008823C9F0EA89FB89808185FD05C0A88968
:1004C000B9898C9186FD0FC00FB607FCF5CF8081EE
:1004D00085FFF2CFA889B9898C9185FFEDCFCE0138
:1004E0000E94E501E7CFDF91CF91089580E090E091
:1004F000892B29F00E94DB0181110C9400000895E2
:100500000E9416041F920F920FB60F9211242F9380
:100510003F938F939F93AF93BF93809115019091D9
:100520001601A0911701B09118013091140123E038
:10053000230F2D3720F40196A11DB11D05C026E81B
:10054000230F0296A11DB11D209314018093150164
:1005500090931601A0931701B0931801809119018F
:1005600090911A01A0911B01B0911C010196A11D4F
:10057000B11D8093190190931A01A0931B01B093B0
:100580001C01BF91AF919F918F913F912F910F903F
:100590000FBE0F901F9018951F920F920FB60F92DB
:1005A00011242F933F934F935F936F937F938F9378
:1005B0009F93AF93BF93EF93FF938DE191E00E94E0
:1005C000E501FF91EF91BF91AF919F918F917F9145
:1005D0006F915F914F913F912F910F900FBE0F90B0
:1005E0001F9018951F920F920FB60F9211242F9300
:1005F0008F939F93EF93FF93E0912D01F0912E0144
:100600008081E0913301F091340182FD12C090812C
:10061000809136018F5F8F7320913701821751F0DF
:10062000E0913601F0E0E35EFE4F958F8093360156
:1006300001C08081FF91EF919F918F912F910F9039
:100640000FBE0F901F901895789484B5826084BD7A
:1006500084B5816084BD85B5826085BD85B58160C6
:1006600085BD80916E00816080936E001092810044
:1006700080918100826080938100809181008160FF
:1006800080938100809180008160809380008091C0
:10069000B10084608093B1008091B000816080934C
:1006A000B00080917A00846080937A0080917A0013
:1006B000826080937A0080917A00816080937A00D2
:1006C00080917A00806880937A001092C10080E067
:1006D0000E94AF000E94870081E00E94AF000E944C
:1006E000870082E00E94AF000E94870084E00E94A1
:1006F000AF000E94870085E00E94AF000E94870043
:1007000086E00E94AF000E94870087E00E94AF0051
:100710000E94870088E00E94AF000E94870089E065
:100720000E94AF000E9487008DE191E00E94CF01FE
:10073000892B09F445C08DE191E00E94AD01EC01E7
:1007400090931301809312018134910511F480E09C
:1007500004C08234910531F481E00E94CE000E94F1
:10076000390117C08334910531F482E00E94CE0034
:100770000E94390113C08434910531F484E00E9451
:10078000CE000E9439010FC08534910511F485E037
:1007900013C0C634D10511F486E00EC0C734D105AC
:1007A00011F487E009C0C834D10511F488E004C011
:1007B000C934D10529F489E00E94CE000E94390194
:1007C0000E947602B1CFEDE1F1E01382128288EE51
:1007D00093E0A0E0B0E084839583A683B78384E0B0
:1007E00091E09183808385EC90E09587848784EC09
:1007F00090E09787868780EC90E0918B808B81ECEE
:1008000090E0938B828B82EC90E0958B848B86ECCE
:1008100090E0978B868B118E128E138E148E089516
:10082000EE0FFF1F0590F491E02D099481E090E018
:0A083000F8940C941B04F894FFCF19
:10083A0000000000070270019E015402CF01AD01C1
:02084A00C101EA
:00000001FF
